{
  "_format": "hh-sol-artifact-1",
  "contractName": "NFTMarketplace",
  "sourceName": "contracts/NFTMarketplace.sol",
  "abi": [
    {
      "inputs": [],
      "stateMutability": "nonpayable",
      "type": "constructor"
    },
    {
      "anonymous": false,
      "inputs": [
        {
          "indexed": true,
          "internalType": "address",
          "name": "owner",
          "type": "address"
        },
        {
          "indexed": true,
          "internalType": "address",
          "name": "approved",
          "type": "address"
        },
        {
          "indexed": true,
          "internalType": "uint256",
          "name": "tokenId",
          "type": "uint256"
        }
      ],
      "name": "Approval",
      "type": "event"
    },
    {
      "anonymous": false,
      "inputs": [
        {
          "indexed": true,
          "internalType": "address",
          "name": "owner",
          "type": "address"
        },
        {
          "indexed": true,
          "internalType": "address",
          "name": "operator",
          "type": "address"
        },
        {
          "indexed": false,
          "internalType": "bool",
          "name": "approved",
          "type": "bool"
        }
      ],
      "name": "ApprovalForAll",
      "type": "event"
    },
    {
      "anonymous": false,
      "inputs": [
        {
          "indexed": true,
          "internalType": "uint256",
          "name": "tokenId",
          "type": "uint256"
        },
        {
          "indexed": false,
          "internalType": "address",
          "name": "seller",
          "type": "address"
        },
        {
          "indexed": false,
          "internalType": "address",
          "name": "owner",
          "type": "address"
        },
        {
          "indexed": false,
          "internalType": "uint256",
          "name": "price",
          "type": "uint256"
        },
        {
          "indexed": false,
          "internalType": "bool",
          "name": "sold",
          "type": "bool"
        }
      ],
      "name": "MarketItemCreated",
      "type": "event"
    },
    {
      "anonymous": false,
      "inputs": [
        {
          "indexed": true,
          "internalType": "address",
          "name": "from",
          "type": "address"
        },
        {
          "indexed": true,
          "internalType": "address",
          "name": "to",
          "type": "address"
        },
        {
          "indexed": true,
          "internalType": "uint256",
          "name": "tokenId",
          "type": "uint256"
        }
      ],
      "name": "Transfer",
      "type": "event"
    },
    {
      "inputs": [
        {
          "internalType": "address",
          "name": "to",
          "type": "address"
        },
        {
          "internalType": "uint256",
          "name": "tokenId",
          "type": "uint256"
        }
      ],
      "name": "approve",
      "outputs": [],
      "stateMutability": "nonpayable",
      "type": "function"
    },
    {
      "inputs": [
        {
          "internalType": "address",
          "name": "owner",
          "type": "address"
        }
      ],
      "name": "balanceOf",
      "outputs": [
        {
          "internalType": "uint256",
          "name": "",
          "type": "uint256"
        }
      ],
      "stateMutability": "view",
      "type": "function"
    },
    {
      "inputs": [
        {
          "internalType": "uint256",
          "name": "",
          "type": "uint256"
        }
      ],
      "name": "campaigns",
      "outputs": [
        {
          "internalType": "address",
          "name": "owner",
          "type": "address"
        },
        {
          "internalType": "string",
          "name": "title",
          "type": "string"
        },
        {
          "internalType": "string",
          "name": "description",
          "type": "string"
        },
        {
          "internalType": "uint256",
          "name": "target",
          "type": "uint256"
        },
        {
          "internalType": "uint256",
          "name": "deadline",
          "type": "uint256"
        },
        {
          "internalType": "uint256",
          "name": "amountCollected",
          "type": "uint256"
        }
      ],
      "stateMutability": "view",
      "type": "function"
    },
    {
      "inputs": [
        {
          "internalType": "address",
          "name": "_owner",
          "type": "address"
        },
        {
          "internalType": "string",
          "name": "_title",
          "type": "string"
        },
        {
          "internalType": "string",
          "name": "_description",
          "type": "string"
        },
        {
          "internalType": "uint256",
          "name": "_target",
          "type": "uint256"
        },
        {
          "internalType": "uint256",
          "name": "_deadline",
          "type": "uint256"
        }
      ],
      "name": "createCampaign",
      "outputs": [
        {
          "internalType": "uint256",
          "name": "",
          "type": "uint256"
        }
      ],
      "stateMutability": "nonpayable",
      "type": "function"
    },
    {
      "inputs": [
        {
          "internalType": "uint256",
          "name": "tokenId",
          "type": "uint256"
        }
      ],
      "name": "createMarketSale",
      "outputs": [],
      "stateMutability": "payable",
      "type": "function"
    },
    {
      "inputs": [
        {
          "internalType": "string",
          "name": "tokenURI",
          "type": "string"
        },
        {
          "internalType": "uint256",
          "name": "price",
          "type": "uint256"
        }
      ],
      "name": "createToken",
      "outputs": [
        {
          "internalType": "uint256",
          "name": "",
          "type": "uint256"
        }
      ],
      "stateMutability": "payable",
      "type": "function"
    },
    {
      "inputs": [
        {
          "internalType": "uint256",
          "name": "_id",
          "type": "uint256"
        }
      ],
      "name": "donateToCampaign",
      "outputs": [],
      "stateMutability": "payable",
      "type": "function"
    },
    {
      "inputs": [],
      "name": "fetchItemsListed",
      "outputs": [
        {
          "components": [
            {
              "internalType": "uint256",
              "name": "tokenId",
              "type": "uint256"
            },
            {
              "internalType": "address payable",
              "name": "seller",
              "type": "address"
            },
            {
              "internalType": "address payable",
              "name": "owner",
              "type": "address"
            },
            {
              "internalType": "uint256",
              "name": "price",
              "type": "uint256"
            },
            {
              "internalType": "bool",
              "name": "sold",
              "type": "bool"
            }
          ],
          "internalType": "struct NFTMarketplace.MarketItem[]",
          "name": "",
          "type": "tuple[]"
        }
      ],
      "stateMutability": "view",
      "type": "function"
    },
    {
      "inputs": [],
      "name": "fetchMarketItem",
      "outputs": [
        {
          "components": [
            {
              "internalType": "uint256",
              "name": "tokenId",
              "type": "uint256"
            },
            {
              "internalType": "address payable",
              "name": "seller",
              "type": "address"
            },
            {
              "internalType": "address payable",
              "name": "owner",
              "type": "address"
            },
            {
              "internalType": "uint256",
              "name": "price",
              "type": "uint256"
            },
            {
              "internalType": "bool",
              "name": "sold",
              "type": "bool"
            }
          ],
          "internalType": "struct NFTMarketplace.MarketItem[]",
          "name": "",
          "type": "tuple[]"
        }
      ],
      "stateMutability": "view",
      "type": "function"
    },
    {
      "inputs": [],
      "name": "fetchMyNFT",
      "outputs": [
        {
          "components": [
            {
              "internalType": "uint256",
              "name": "tokenId",
              "type": "uint256"
            },
            {
              "internalType": "address payable",
              "name": "seller",
              "type": "address"
            },
            {
              "internalType": "address payable",
              "name": "owner",
              "type": "address"
            },
            {
              "internalType": "uint256",
              "name": "price",
              "type": "uint256"
            },
            {
              "internalType": "bool",
              "name": "sold",
              "type": "bool"
            }
          ],
          "internalType": "struct NFTMarketplace.MarketItem[]",
          "name": "",
          "type": "tuple[]"
        }
      ],
      "stateMutability": "view",
      "type": "function"
    },
    {
      "inputs": [
        {
          "internalType": "uint256",
          "name": "tokenId",
          "type": "uint256"
        }
      ],
      "name": "getApproved",
      "outputs": [
        {
          "internalType": "address",
          "name": "",
          "type": "address"
        }
      ],
      "stateMutability": "view",
      "type": "function"
    },
    {
      "inputs": [],
      "name": "getCampaigns",
      "outputs": [
        {
          "components": [
            {
              "internalType": "address",
              "name": "owner",
              "type": "address"
            },
            {
              "internalType": "string",
              "name": "title",
              "type": "string"
            },
            {
              "internalType": "string",
              "name": "description",
              "type": "string"
            },
            {
              "internalType": "uint256",
              "name": "target",
              "type": "uint256"
            },
            {
              "internalType": "uint256",
              "name": "deadline",
              "type": "uint256"
            },
            {
              "internalType": "uint256",
              "name": "amountCollected",
              "type": "uint256"
            },
            {
              "internalType": "address[]",
              "name": "donators",
              "type": "address[]"
            },
            {
              "internalType": "uint256[]",
              "name": "donations",
              "type": "uint256[]"
            }
          ],
          "internalType": "struct NFTMarketplace.Campaign[]",
          "name": "",
          "type": "tuple[]"
        }
      ],
      "stateMutability": "view",
      "type": "function"
    },
    {
      "inputs": [
        {
          "internalType": "uint256",
          "name": "_id",
          "type": "uint256"
        }
      ],
      "name": "getDonators",
      "outputs": [
        {
          "internalType": "address[]",
          "name": "",
          "type": "address[]"
        },
        {
          "internalType": "uint256[]",
          "name": "",
          "type": "uint256[]"
        }
      ],
      "stateMutability": "view",
      "type": "function"
    },
    {
      "inputs": [],
      "name": "getListingPrice",
      "outputs": [
        {
          "internalType": "uint256",
          "name": "",
          "type": "uint256"
        }
      ],
      "stateMutability": "view",
      "type": "function"
    },
    {
      "inputs": [
        {
          "internalType": "address",
          "name": "owner",
          "type": "address"
        },
        {
          "internalType": "address",
          "name": "operator",
          "type": "address"
        }
      ],
      "name": "isApprovedForAll",
      "outputs": [
        {
          "internalType": "bool",
          "name": "",
          "type": "bool"
        }
      ],
      "stateMutability": "view",
      "type": "function"
    },
    {
      "inputs": [],
      "name": "name",
      "outputs": [
        {
          "internalType": "string",
          "name": "",
          "type": "string"
        }
      ],
      "stateMutability": "view",
      "type": "function"
    },
    {
      "inputs": [],
      "name": "numberOfCampaigns",
      "outputs": [
        {
          "internalType": "uint256",
          "name": "",
          "type": "uint256"
        }
      ],
      "stateMutability": "view",
      "type": "function"
    },
    {
      "inputs": [
        {
          "internalType": "uint256",
          "name": "tokenId",
          "type": "uint256"
        }
      ],
      "name": "ownerOf",
      "outputs": [
        {
          "internalType": "address",
          "name": "",
          "type": "address"
        }
      ],
      "stateMutability": "view",
      "type": "function"
    },
    {
      "inputs": [
        {
          "internalType": "uint256",
          "name": "tokenId",
          "type": "uint256"
        },
        {
          "internalType": "uint256",
          "name": "price",
          "type": "uint256"
        }
      ],
      "name": "resellToken",
      "outputs": [],
      "stateMutability": "payable",
      "type": "function"
    },
    {
      "inputs": [
        {
          "internalType": "address",
          "name": "from",
          "type": "address"
        },
        {
          "internalType": "address",
          "name": "to",
          "type": "address"
        },
        {
          "internalType": "uint256",
          "name": "tokenId",
          "type": "uint256"
        }
      ],
      "name": "safeTransferFrom",
      "outputs": [],
      "stateMutability": "nonpayable",
      "type": "function"
    },
    {
      "inputs": [
        {
          "internalType": "address",
          "name": "from",
          "type": "address"
        },
        {
          "internalType": "address",
          "name": "to",
          "type": "address"
        },
        {
          "internalType": "uint256",
          "name": "tokenId",
          "type": "uint256"
        },
        {
          "internalType": "bytes",
          "name": "data",
          "type": "bytes"
        }
      ],
      "name": "safeTransferFrom",
      "outputs": [],
      "stateMutability": "nonpayable",
      "type": "function"
    },
    {
      "inputs": [
        {
          "internalType": "address",
          "name": "operator",
          "type": "address"
        },
        {
          "internalType": "bool",
          "name": "approved",
          "type": "bool"
        }
      ],
      "name": "setApprovalForAll",
      "outputs": [],
      "stateMutability": "nonpayable",
      "type": "function"
    },
    {
      "inputs": [
        {
          "internalType": "bytes4",
          "name": "interfaceId",
          "type": "bytes4"
        }
      ],
      "name": "supportsInterface",
      "outputs": [
        {
          "internalType": "bool",
          "name": "",
          "type": "bool"
        }
      ],
      "stateMutability": "view",
      "type": "function"
    },
    {
      "inputs": [],
      "name": "symbol",
      "outputs": [
        {
          "internalType": "string",
          "name": "",
          "type": "string"
        }
      ],
      "stateMutability": "view",
      "type": "function"
    },
    {
      "inputs": [
        {
          "internalType": "uint256",
          "name": "tokenId",
          "type": "uint256"
        }
      ],
      "name": "tokenURI",
      "outputs": [
        {
          "internalType": "string",
          "name": "",
          "type": "string"
        }
      ],
      "stateMutability": "view",
      "type": "function"
    },
    {
      "inputs": [
        {
          "internalType": "address",
          "name": "from",
          "type": "address"
        },
        {
          "internalType": "address",
          "name": "to",
          "type": "address"
        },
        {
          "internalType": "uint256",
          "name": "tokenId",
          "type": "uint256"
        }
      ],
      "name": "transferFrom",
      "outputs": [],
      "stateMutability": "nonpayable",
      "type": "function"
    },
    {
      "inputs": [
        {
          "internalType": "uint256",
          "name": "_listingPrice",
          "type": "uint256"
        }
      ],
      "name": "updateListingPrice",
      "outputs": [],
      "stateMutability": "payable",
      "type": "function"
    }
  ],
  "bytecode": "0x60806040526611c37937e080006009556000600d553480156200002157600080fd5b506040518060400160405280601081526020017f4d657461766572736520546f6b656e73000000000000000000000000000000008152506040518060400160405280600481526020017f4d4554540000000000000000000000000000000000000000000000000000000081525081600090816200009f919062000375565b508060019081620000b1919062000375565b50505033600a60006101000a81548173ffffffffffffffffffffffffffffffffffffffff021916908373ffffffffffffffffffffffffffffffffffffffff1602179055506200045c565b600081519050919050565b7f4e487b7100000000000000000000000000000000000000000000000000000000600052604160045260246000fd5b7f4e487b7100000000000000000000000000000000000000000000000000000000600052602260045260246000fd5b600060028204905060018216806200017d57607f821691505b60208210810362000193576200019262000135565b5b50919050565b60008190508160005260206000209050919050565b60006020601f8301049050919050565b600082821b905092915050565b600060088302620001fd7fffffffffffffffffffffffffffffffffffffffffffffffffffffffffffffffff82620001be565b620002098683620001be565b95508019841693508086168417925050509392505050565b6000819050919050565b6000819050919050565b600062000256620002506200024a8462000221565b6200022b565b62000221565b9050919050565b6000819050919050565b620002728362000235565b6200028a62000281826200025d565b848454620001cb565b825550505050565b600090565b620002a162000292565b620002ae81848462000267565b505050565b5b81811015620002d657620002ca60008262000297565b600181019050620002b4565b5050565b601f8211156200032557620002ef8162000199565b620002fa84620001ae565b810160208510156200030a578190505b620003226200031985620001ae565b830182620002b3565b50505b505050565b600082821c905092915050565b60006200034a600019846008026200032a565b1980831691505092915050565b600062000365838362000337565b9150826002028217905092915050565b6200038082620000fb565b67ffffffffffffffff8111156200039c576200039b62000106565b5b620003a8825462000164565b620003b5828285620002da565b600060209050601f831160018114620003ed5760008415620003d8578287015190505b620003e4858262000357565b86555062000454565b601f198416620003fd8662000199565b60005b82811015620004275784890151825560018201915060208501945060208101905062000400565b8683101562000447578489015162000443601f89168262000337565b8355505b6001600288020188555050505b505050505050565b6151bf806200046c6000396000f3fe60806040526004361061019c5760003560e01c80636352211e116100ec578063ae677aa31161008a578063c18763f711610064578063c18763f7146105d0578063c87b56dd146105fb578063e219fc7514610638578063e985e9c5146106545761019c565b8063ae677aa31461056f578063b88d4fde1461058b578063be9af536146105b45761019c565b80638fafd021116100c65780638fafd021146104c557806395d89b41146104f0578063a22cb4651461051b578063a6b03633146105445761019c565b80636352211e1461041b57806370a082311461045857806372b3b620146104955761019c565b80630fa91fa91161015957806323b872dd1161013357806323b872dd1461038257806342842e0e146103ab57806342a4fda8146103d457806345f8fa80146103f05761019c565b80630fa91fa9146102d757806312e8558514610315578063141961bc146103405761019c565b806301ffc9a7146101a157806306fdde03146101de578063075843c31461020957806307ca140d14610246578063081812fc14610271578063095ea7b3146102ae575b600080fd5b3480156101ad57600080fd5b506101c860048036038101906101c391906133b2565b610691565b6040516101d591906133fa565b60405180910390f35b3480156101ea57600080fd5b506101f3610773565b60405161020091906134a5565b60405180910390f35b34801561021557600080fd5b50610230600480360381019061022b9190613690565b610805565b60405161023d9190613752565b60405180910390f35b34801561025257600080fd5b5061025b61091b565b6040516102689190613752565b60405180910390f35b34801561027d57600080fd5b506102986004803603810190610293919061376d565b610921565b6040516102a591906137a9565b60405180910390f35b3480156102ba57600080fd5b506102d560048036038101906102d091906137c4565b610967565b005b3480156102e357600080fd5b506102fe60048036038101906102f9919061376d565b610a7e565b60405161030c929190613980565b60405180910390f35b34801561032157600080fd5b5061032a610b90565b6040516103379190613752565b60405180910390f35b34801561034c57600080fd5b506103676004803603810190610362919061376d565b610b9a565b604051610379969594939291906139b7565b60405180910390f35b34801561038e57600080fd5b506103a960048036038101906103a49190613a26565b610d06565b005b3480156103b757600080fd5b506103d260048036038101906103cd9190613a26565b610d66565b005b6103ee60048036038101906103e9919061376d565b610d86565b005b3480156103fc57600080fd5b50610405610ee7565b6040516104129190613bc0565b60405180910390f35b34801561042757600080fd5b50610442600480360381019061043d919061376d565b6111d3565b60405161044f91906137a9565b60405180910390f35b34801561046457600080fd5b5061047f600480360381019061047a9190613be2565b611284565b60405161048c9190613752565b60405180910390f35b6104af60048036038101906104aa9190613c0f565b61133b565b6040516104bc9190613752565b60405180910390f35b3480156104d157600080fd5b506104da61137d565b6040516104e79190613bc0565b60405180910390f35b3480156104fc57600080fd5b506105056115e5565b60405161051291906134a5565b60405180910390f35b34801561052757600080fd5b50610542600480360381019061053d9190613c97565b611677565b005b34801561055057600080fd5b5061055961168d565b6040516105669190613f86565b60405180910390f35b6105896004803603810190610584919061376d565b6119d2565b005b34801561059757600080fd5b506105b260048036038101906105ad9190614049565b611a6c565b005b6105ce60048036038101906105c9919061376d565b611ace565b005b3480156105dc57600080fd5b506105e5611d06565b6040516105f29190613bc0565b60405180910390f35b34801561060757600080fd5b50610622600480360381019061061d919061376d565b611ff2565b60405161062f91906134a5565b60405180910390f35b610652600480360381019061064d91906140cc565b612104565b005b34801561066057600080fd5b5061067b6004803603810190610676919061410c565b6122f9565b60405161068891906133fa565b60405180910390f35b60007f80ac58cd000000000000000000000000000000000000000000000000000000007bffffffffffffffffffffffffffffffffffffffffffffffffffffffff1916827bffffffffffffffffffffffffffffffffffffffffffffffffffffffff1916148061075c57507f5b5e139f000000000000000000000000000000000000000000000000000000007bffffffffffffffffffffffffffffffffffffffffffffffffffffffff1916827bffffffffffffffffffffffffffffffffffffffffffffffffffffffff1916145b8061076c575061076b8261238d565b5b9050919050565b6060600080546107829061417b565b80601f01602080910402602001604051908101604052809291908181526020018280546107ae9061417b565b80156107fb5780601f106107d0576101008083540402835291602001916107fb565b820191906000526020600020905b8154815290600101906020018083116107de57829003601f168201915b5050505050905090565b600080600c6000600d548152602001908152602001600020905042816004015410610865576040517f08c379a000000000000000000000000000000000000000000000000000000000815260040161085c9061421e565b60405180910390fd5b868160000160006101000a81548173ffffffffffffffffffffffffffffffffffffffff021916908373ffffffffffffffffffffffffffffffffffffffff160217905550858160010190816108b991906143ea565b50848160020190816108cb91906143ea565b5083816003018190555082816004018190555060008160050181905550600d60008154809291906108fb906144eb565b91905055506001600d5461090f9190614533565b91505095945050505050565b600d5481565b600061092c826123f7565b6004600083815260200190815260200160002060009054906101000a900473ffffffffffffffffffffffffffffffffffffffff169050919050565b6000610972826111d3565b90508073ffffffffffffffffffffffffffffffffffffffff168373ffffffffffffffffffffffffffffffffffffffff16036109e2576040517f08c379a00000000000000000000000000000000000000000000000000000000081526004016109d9906145d9565b60405180910390fd5b8073ffffffffffffffffffffffffffffffffffffffff16610a01612442565b73ffffffffffffffffffffffffffffffffffffffff161480610a305750610a2f81610a2a612442565b6122f9565b5b610a6f576040517f08c379a0000000000000000000000000000000000000000000000000000000008152600401610a669061466b565b60405180910390fd5b610a79838361244a565b505050565b606080600c6000848152602001908152602001600020600601600c600085815260200190815260200160002060070181805480602002602001604051908101604052809291908181526020018280548015610b2e57602002820191906000526020600020905b8160009054906101000a900473ffffffffffffffffffffffffffffffffffffffff1673ffffffffffffffffffffffffffffffffffffffff1681526020019060010190808311610ae4575b5050505050915080805480602002602001604051908101604052809291908181526020018280548015610b8057602002820191906000526020600020905b815481526020019060010190808311610b6c575b5050505050905091509150915091565b6000600954905090565b600c6020528060005260406000206000915090508060000160009054906101000a900473ffffffffffffffffffffffffffffffffffffffff1690806001018054610be39061417b565b80601f0160208091040260200160405190810160405280929190818152602001828054610c0f9061417b565b8015610c5c5780601f10610c3157610100808354040283529160200191610c5c565b820191906000526020600020905b815481529060010190602001808311610c3f57829003601f168201915b505050505090806002018054610c719061417b565b80601f0160208091040260200160405190810160405280929190818152602001828054610c9d9061417b565b8015610cea5780601f10610cbf57610100808354040283529160200191610cea565b820191906000526020600020905b815481529060010190602001808311610ccd57829003601f168201915b5050505050908060030154908060040154908060050154905086565b610d17610d11612442565b82612503565b610d56576040517f08c379a0000000000000000000000000000000000000000000000000000000008152600401610d4d906146fd565b60405180910390fd5b610d61838383612598565b505050565b610d8183838360405180602001604052806000815250611a6c565b505050565b60003490506000600c6000848152602001908152602001600020905080600601339080600181540180825580915050600190039060005260206000200160009091909190916101000a81548173ffffffffffffffffffffffffffffffffffffffff021916908373ffffffffffffffffffffffffffffffffffffffff1602179055508060070182908060018154018082558091505060019003906000526020600020016000909190919091505560008160000160009054906101000a900473ffffffffffffffffffffffffffffffffffffffff1673ffffffffffffffffffffffffffffffffffffffff1683604051610e7c9061474e565b60006040518083038185875af1925050503d8060008114610eb9576040519150601f19603f3d011682016040523d82523d6000602084013e610ebe565b606091505b505090508015610ee157828260050154610ed89190614763565b82600501819055505b50505050565b60606000610ef560076127fe565b905060008060005b83811015610f9d573373ffffffffffffffffffffffffffffffffffffffff16600b6000600184610f2d9190614763565b815260200190815260200160002060010160009054906101000a900473ffffffffffffffffffffffffffffffffffffffff1673ffffffffffffffffffffffffffffffffffffffff1603610f8a57600183610f879190614763565b92505b8080610f95906144eb565b915050610efd565b5060008267ffffffffffffffff811115610fba57610fb961352f565b5b604051908082528060200260200182016040528015610ff357816020015b610fe061328e565b815260200190600190039081610fd85790505b50905060005b848110156111c8573373ffffffffffffffffffffffffffffffffffffffff16600b60006001846110299190614763565b815260200190815260200160002060010160009054906101000a900473ffffffffffffffffffffffffffffffffffffffff1673ffffffffffffffffffffffffffffffffffffffff16036111b55760006001826110859190614763565b90506000600b60008381526020019081526020016000209050806040518060a0016040529081600082015481526020016001820160009054906101000a900473ffffffffffffffffffffffffffffffffffffffff1673ffffffffffffffffffffffffffffffffffffffff1673ffffffffffffffffffffffffffffffffffffffff1681526020016002820160009054906101000a900473ffffffffffffffffffffffffffffffffffffffff1673ffffffffffffffffffffffffffffffffffffffff1673ffffffffffffffffffffffffffffffffffffffff168152602001600382015481526020016004820160009054906101000a900460ff16151515158152505084868151811061119857611197614797565b5b60200260200101819052506001856111b09190614763565b945050505b80806111c0906144eb565b915050610ff9565b508094505050505090565b6000806002600084815260200190815260200160002060009054906101000a900473ffffffffffffffffffffffffffffffffffffffff169050600073ffffffffffffffffffffffffffffffffffffffff168173ffffffffffffffffffffffffffffffffffffffff160361127b576040517f08c379a000000000000000000000000000000000000000000000000000000000815260040161127290614812565b60405180910390fd5b80915050919050565b60008073ffffffffffffffffffffffffffffffffffffffff168273ffffffffffffffffffffffffffffffffffffffff16036112f4576040517f08c379a00000000000000000000000000000000000000000000000000000000081526004016112eb906148a4565b60405180910390fd5b600360008373ffffffffffffffffffffffffffffffffffffffff1673ffffffffffffffffffffffffffffffffffffffff168152602001908152602001600020549050919050565b6000611347600761280c565b600061135360076127fe565b905061135f3382612822565b61136981856129fb565b6113738184612a68565b8091505092915050565b6060600061138b60076127fe565b9050600061139960086127fe565b6113a360076127fe565b6113ad9190614533565b90506000808267ffffffffffffffff8111156113cc576113cb61352f565b5b60405190808252806020026020018201604052801561140557816020015b6113f261328e565b8152602001906001900390816113ea5790505b50905060005b848110156115da573073ffffffffffffffffffffffffffffffffffffffff16600b600060018461143b9190614763565b815260200190815260200160002060020160009054906101000a900473ffffffffffffffffffffffffffffffffffffffff1673ffffffffffffffffffffffffffffffffffffffff16036115c75760006001826114979190614763565b90506000600b60008381526020019081526020016000209050806040518060a0016040529081600082015481526020016001820160009054906101000a900473ffffffffffffffffffffffffffffffffffffffff1673ffffffffffffffffffffffffffffffffffffffff1673ffffffffffffffffffffffffffffffffffffffff1681526020016002820160009054906101000a900473ffffffffffffffffffffffffffffffffffffffff1673ffffffffffffffffffffffffffffffffffffffff1673ffffffffffffffffffffffffffffffffffffffff168152602001600382015481526020016004820160009054906101000a900460ff1615151515815250508486815181106115aa576115a9614797565b5b60200260200101819052506001856115c29190614763565b945050505b80806115d2906144eb565b91505061140b565b508094505050505090565b6060600180546115f49061417b565b80601f01602080910402602001604051908101604052809291908181526020018280546116209061417b565b801561166d5780601f106116425761010080835404028352916020019161166d565b820191906000526020600020905b81548152906001019060200180831161165057829003601f168201915b5050505050905090565b611689611682612442565b8383612c6b565b5050565b60606000600d5467ffffffffffffffff8111156116ad576116ac61352f565b5b6040519080825280602002602001820160405280156116e657816020015b6116d36132eb565b8152602001906001900390816116cb5790505b50905060005b600d548110156119ca576000600c6000838152602001908152602001600020905080604051806101000160405290816000820160009054906101000a900473ffffffffffffffffffffffffffffffffffffffff1673ffffffffffffffffffffffffffffffffffffffff1673ffffffffffffffffffffffffffffffffffffffff1681526020016001820180546117809061417b565b80601f01602080910402602001604051908101604052809291908181526020018280546117ac9061417b565b80156117f95780601f106117ce576101008083540402835291602001916117f9565b820191906000526020600020905b8154815290600101906020018083116117dc57829003601f168201915b505050505081526020016002820180546118129061417b565b80601f016020809104026020016040519081016040528092919081815260200182805461183e9061417b565b801561188b5780601f106118605761010080835404028352916020019161188b565b820191906000526020600020905b81548152906001019060200180831161186e57829003601f168201915b505050505081526020016003820154815260200160048201548152602001600582015481526020016006820180548060200260200160405190810160405280929190818152602001828054801561193757602002820191906000526020600020905b8160009054906101000a900473ffffffffffffffffffffffffffffffffffffffff1673ffffffffffffffffffffffffffffffffffffffff16815260200190600101908083116118ed575b505050505081526020016007820180548060200260200160405190810160405280929190818152602001828054801561198f57602002820191906000526020600020905b81548152602001906001019080831161197b575b5050505050815250508383815181106119ab576119aa614797565b5b60200260200101819052505080806119c2906144eb565b9150506116ec565b508091505090565b3373ffffffffffffffffffffffffffffffffffffffff16600a60009054906101000a900473ffffffffffffffffffffffffffffffffffffffff1673ffffffffffffffffffffffffffffffffffffffff1614611a62576040517f08c379a0000000000000000000000000000000000000000000000000000000008152600401611a5990614936565b60405180910390fd5b8060098190555050565b611a7d611a77612442565b83612503565b611abc576040517f08c379a0000000000000000000000000000000000000000000000000000000008152600401611ab3906146fd565b60405180910390fd5b611ac884848484612dd7565b50505050565b6000600b6000838152602001908152602001600020600301549050803414611b2b576040517f08c379a0000000000000000000000000000000000000000000000000000000008152600401611b22906149c8565b60405180910390fd5b33600b600084815260200190815260200160002060020160006101000a81548173ffffffffffffffffffffffffffffffffffffffff021916908373ffffffffffffffffffffffffffffffffffffffff1602179055506001600b600084815260200190815260200160002060040160006101000a81548160ff0219169083151502179055506000600b600084815260200190815260200160002060010160006101000a81548173ffffffffffffffffffffffffffffffffffffffff021916908373ffffffffffffffffffffffffffffffffffffffff160217905550611c0f600861280c565b611c1a303384612598565b600a60009054906101000a900473ffffffffffffffffffffffffffffffffffffffff1673ffffffffffffffffffffffffffffffffffffffff166108fc6009549081150290604051600060405180830381858888f19350505050158015611c84573d6000803e3d6000fd5b50600b600083815260200190815260200160002060010160009054906101000a900473ffffffffffffffffffffffffffffffffffffffff1673ffffffffffffffffffffffffffffffffffffffff166108fc349081150290604051600060405180830381858888f19350505050158015611d01573d6000803e3d6000fd5b505050565b60606000611d1460076127fe565b905060008060005b83811015611dbc573373ffffffffffffffffffffffffffffffffffffffff16600b6000600184611d4c9190614763565b815260200190815260200160002060020160009054906101000a900473ffffffffffffffffffffffffffffffffffffffff1673ffffffffffffffffffffffffffffffffffffffff1603611da957600183611da69190614763565b92505b8080611db4906144eb565b915050611d1c565b5060008267ffffffffffffffff811115611dd957611dd861352f565b5b604051908082528060200260200182016040528015611e1257816020015b611dff61328e565b815260200190600190039081611df75790505b50905060005b84811015611fe7573373ffffffffffffffffffffffffffffffffffffffff16600b6000600184611e489190614763565b815260200190815260200160002060020160009054906101000a900473ffffffffffffffffffffffffffffffffffffffff1673ffffffffffffffffffffffffffffffffffffffff1603611fd4576000600182611ea49190614763565b90506000600b60008381526020019081526020016000209050806040518060a0016040529081600082015481526020016001820160009054906101000a900473ffffffffffffffffffffffffffffffffffffffff1673ffffffffffffffffffffffffffffffffffffffff1673ffffffffffffffffffffffffffffffffffffffff1681526020016002820160009054906101000a900473ffffffffffffffffffffffffffffffffffffffff1673ffffffffffffffffffffffffffffffffffffffff1673ffffffffffffffffffffffffffffffffffffffff168152602001600382015481526020016004820160009054906101000a900460ff161515151581525050848681518110611fb757611fb6614797565b5b6020026020010181905250600185611fcf9190614763565b945050505b8080611fdf906144eb565b915050611e18565b508094505050505090565b6060611ffd826123f7565b600060066000848152602001908152602001600020805461201d9061417b565b80601f01602080910402602001604051908101604052809291908181526020018280546120499061417b565b80156120965780601f1061206b57610100808354040283529160200191612096565b820191906000526020600020905b81548152906001019060200180831161207957829003601f168201915b5050505050905060006120a7612e33565b905060008151036120bc5781925050506120ff565b6000825111156120f15780826040516020016120d9929190614a24565b604051602081830303815290604052925050506120ff565b6120fa84612e4a565b925050505b919050565b3373ffffffffffffffffffffffffffffffffffffffff16600b600084815260200190815260200160002060020160009054906101000a900473ffffffffffffffffffffffffffffffffffffffff1673ffffffffffffffffffffffffffffffffffffffff16146121a8576040517f08c379a000000000000000000000000000000000000000000000000000000000815260040161219f90614aba565b60405180910390fd5b60095434146121ec576040517f08c379a00000000000000000000000000000000000000000000000000000000081526004016121e390614b4c565b60405180910390fd5b6000600b600084815260200190815260200160002060040160006101000a81548160ff02191690831515021790555080600b60008481526020019081526020016000206003018190555033600b600084815260200190815260200160002060010160006101000a81548173ffffffffffffffffffffffffffffffffffffffff021916908373ffffffffffffffffffffffffffffffffffffffff16021790555030600b600084815260200190815260200160002060020160006101000a81548173ffffffffffffffffffffffffffffffffffffffff021916908373ffffffffffffffffffffffffffffffffffffffff1602179055506122ea6008612eb2565b6122f5333084612598565b5050565b6000600560008473ffffffffffffffffffffffffffffffffffffffff1673ffffffffffffffffffffffffffffffffffffffff16815260200190815260200160002060008373ffffffffffffffffffffffffffffffffffffffff1673ffffffffffffffffffffffffffffffffffffffff16815260200190815260200160002060009054906101000a900460ff16905092915050565b60007f01ffc9a7000000000000000000000000000000000000000000000000000000007bffffffffffffffffffffffffffffffffffffffffffffffffffffffff1916827bffffffffffffffffffffffffffffffffffffffffffffffffffffffff1916149050919050565b61240081612f0e565b61243f576040517f08c379a000000000000000000000000000000000000000000000000000000000815260040161243690614812565b60405180910390fd5b50565b600033905090565b816004600083815260200190815260200160002060006101000a81548173ffffffffffffffffffffffffffffffffffffffff021916908373ffffffffffffffffffffffffffffffffffffffff160217905550808273ffffffffffffffffffffffffffffffffffffffff166124bd836111d3565b73ffffffffffffffffffffffffffffffffffffffff167f8c5be1e5ebec7d5bd14f71427d1e84f3dd0314c0f7b2291e5b200ac8c7c3b92560405160405180910390a45050565b60008061250f836111d3565b90508073ffffffffffffffffffffffffffffffffffffffff168473ffffffffffffffffffffffffffffffffffffffff161480612551575061255081856122f9565b5b8061258f57508373ffffffffffffffffffffffffffffffffffffffff1661257784610921565b73ffffffffffffffffffffffffffffffffffffffff16145b91505092915050565b8273ffffffffffffffffffffffffffffffffffffffff166125b8826111d3565b73ffffffffffffffffffffffffffffffffffffffff161461260e576040517f08c379a000000000000000000000000000000000000000000000000000000000815260040161260590614bde565b60405180910390fd5b600073ffffffffffffffffffffffffffffffffffffffff168273ffffffffffffffffffffffffffffffffffffffff160361267d576040517f08c379a000000000000000000000000000000000000000000000000000000000815260040161267490614c70565b60405180910390fd5b612688838383612f7a565b61269360008261244a565b6001600360008573ffffffffffffffffffffffffffffffffffffffff1673ffffffffffffffffffffffffffffffffffffffff16815260200190815260200160002060008282546126e39190614533565b925050819055506001600360008473ffffffffffffffffffffffffffffffffffffffff1673ffffffffffffffffffffffffffffffffffffffff168152602001908152602001600020600082825461273a9190614763565b92505081905550816002600083815260200190815260200160002060006101000a81548173ffffffffffffffffffffffffffffffffffffffff021916908373ffffffffffffffffffffffffffffffffffffffff160217905550808273ffffffffffffffffffffffffffffffffffffffff168473ffffffffffffffffffffffffffffffffffffffff167fddf252ad1be2c89b69c2b068fc378daa952ba7f163c4a11628f55a4df523b3ef60405160405180910390a46127f9838383612f7f565b505050565b600081600001549050919050565b6001816000016000828254019250508190555050565b600073ffffffffffffffffffffffffffffffffffffffff168273ffffffffffffffffffffffffffffffffffffffff1603612891576040517f08c379a000000000000000000000000000000000000000000000000000000000815260040161288890614cdc565b60405180910390fd5b61289a81612f0e565b156128da576040517f08c379a00000000000000000000000000000000000000000000000000000000081526004016128d190614d48565b60405180910390fd5b6128e660008383612f7a565b6001600360008473ffffffffffffffffffffffffffffffffffffffff1673ffffffffffffffffffffffffffffffffffffffff16815260200190815260200160002060008282546129369190614763565b92505081905550816002600083815260200190815260200160002060006101000a81548173ffffffffffffffffffffffffffffffffffffffff021916908373ffffffffffffffffffffffffffffffffffffffff160217905550808273ffffffffffffffffffffffffffffffffffffffff16600073ffffffffffffffffffffffffffffffffffffffff167fddf252ad1be2c89b69c2b068fc378daa952ba7f163c4a11628f55a4df523b3ef60405160405180910390a46129f760008383612f7f565b5050565b612a0482612f0e565b612a43576040517f08c379a0000000000000000000000000000000000000000000000000000000008152600401612a3a90614dda565b60405180910390fd5b80600660008481526020019081526020016000209081612a6391906143ea565b505050565b60008111612aab576040517f08c379a0000000000000000000000000000000000000000000000000000000008152600401612aa290614e46565b60405180910390fd5b6009543414612aef576040517f08c379a0000000000000000000000000000000000000000000000000000000008152600401612ae690614b4c565b60405180910390fd5b6040518060a001604052808381526020013373ffffffffffffffffffffffffffffffffffffffff1681526020013073ffffffffffffffffffffffffffffffffffffffff16815260200182815260200160001515815250600b60008481526020019081526020016000206000820151816000015560208201518160010160006101000a81548173ffffffffffffffffffffffffffffffffffffffff021916908373ffffffffffffffffffffffffffffffffffffffff16021790555060408201518160020160006101000a81548173ffffffffffffffffffffffffffffffffffffffff021916908373ffffffffffffffffffffffffffffffffffffffff1602179055506060820151816003015560808201518160040160006101000a81548160ff021916908315150217905550905050612c28333084612598565b817fb640004f1d14576d0c209e240cad0410e0d8c0c33a09375861fbadae2588a98d3330846000604051612c5f9493929190614e66565b60405180910390a25050565b8173ffffffffffffffffffffffffffffffffffffffff168373ffffffffffffffffffffffffffffffffffffffff1603612cd9576040517f08c379a0000000000000000000000000000000000000000000000000000000008152600401612cd090614ef7565b60405180910390fd5b80600560008573ffffffffffffffffffffffffffffffffffffffff1673ffffffffffffffffffffffffffffffffffffffff16815260200190815260200160002060008473ffffffffffffffffffffffffffffffffffffffff1673ffffffffffffffffffffffffffffffffffffffff16815260200190815260200160002060006101000a81548160ff0219169083151502179055508173ffffffffffffffffffffffffffffffffffffffff168373ffffffffffffffffffffffffffffffffffffffff167f17307eab39ab6107e8899845ad3d59bd9653f200f220920489ca2b5937696c3183604051612dca91906133fa565b60405180910390a3505050565b612de2848484612598565b612dee84848484612f84565b612e2d576040517f08c379a0000000000000000000000000000000000000000000000000000000008152600401612e2490614f89565b60405180910390fd5b50505050565b606060405180602001604052806000815250905090565b6060612e55826123f7565b6000612e5f612e33565b90506000815111612e7f5760405180602001604052806000815250612eaa565b80612e898461310b565b604051602001612e9a929190614a24565b6040516020818303038152906040525b915050919050565b60008160000154905060008111612efe576040517f08c379a0000000000000000000000000000000000000000000000000000000008152600401612ef590614ff5565b60405180910390fd5b6001810382600001819055505050565b60008073ffffffffffffffffffffffffffffffffffffffff166002600084815260200190815260200160002060009054906101000a900473ffffffffffffffffffffffffffffffffffffffff1673ffffffffffffffffffffffffffffffffffffffff1614159050919050565b505050565b505050565b6000612fa58473ffffffffffffffffffffffffffffffffffffffff1661326b565b156130fe578373ffffffffffffffffffffffffffffffffffffffff1663150b7a02612fce612442565b8786866040518563ffffffff1660e01b8152600401612ff0949392919061506a565b6020604051808303816000875af192505050801561302c57506040513d601f19601f8201168201806040525081019061302991906150cb565b60015b6130ae573d806000811461305c576040519150601f19603f3d011682016040523d82523d6000602084013e613061565b606091505b5060008151036130a6576040517f08c379a000000000000000000000000000000000000000000000000000000000815260040161309d90614f89565b60405180910390fd5b805181602001fd5b63150b7a0260e01b7bffffffffffffffffffffffffffffffffffffffffffffffffffffffff1916817bffffffffffffffffffffffffffffffffffffffffffffffffffffffff191614915050613103565b600190505b949350505050565b606060008203613152576040518060400160405280600181526020017f30000000000000000000000000000000000000000000000000000000000000008152509050613266565b600082905060005b6000821461318457808061316d906144eb565b915050600a8261317d9190615127565b915061315a565b60008167ffffffffffffffff8111156131a05761319f61352f565b5b6040519080825280601f01601f1916602001820160405280156131d25781602001600182028036833780820191505090505b5090505b6000851461325f576001826131eb9190614533565b9150600a856131fa9190615158565b60306132069190614763565b60f81b81838151811061321c5761321b614797565b5b60200101907effffffffffffffffffffffffffffffffffffffffffffffffffffffffffffff1916908160001a905350600a856132589190615127565b94506131d6565b8093505050505b919050565b6000808273ffffffffffffffffffffffffffffffffffffffff163b119050919050565b6040518060a0016040528060008152602001600073ffffffffffffffffffffffffffffffffffffffff168152602001600073ffffffffffffffffffffffffffffffffffffffff168152602001600081526020016000151581525090565b604051806101000160405280600073ffffffffffffffffffffffffffffffffffffffff168152602001606081526020016060815260200160008152602001600081526020016000815260200160608152602001606081525090565b6000604051905090565b600080fd5b600080fd5b60007fffffffff0000000000000000000000000000000000000000000000000000000082169050919050565b61338f8161335a565b811461339a57600080fd5b50565b6000813590506133ac81613386565b92915050565b6000602082840312156133c8576133c7613350565b5b60006133d68482850161339d565b91505092915050565b60008115159050919050565b6133f4816133df565b82525050565b600060208201905061340f60008301846133eb565b92915050565b600081519050919050565b600082825260208201905092915050565b60005b8381101561344f578082015181840152602081019050613434565b60008484015250505050565b6000601f19601f8301169050919050565b600061347782613415565b6134818185613420565b9350613491818560208601613431565b61349a8161345b565b840191505092915050565b600060208201905081810360008301526134bf818461346c565b905092915050565b600073ffffffffffffffffffffffffffffffffffffffff82169050919050565b60006134f2826134c7565b9050919050565b613502816134e7565b811461350d57600080fd5b50565b60008135905061351f816134f9565b92915050565b600080fd5b600080fd5b7f4e487b7100000000000000000000000000000000000000000000000000000000600052604160045260246000fd5b6135678261345b565b810181811067ffffffffffffffff821117156135865761358561352f565b5b80604052505050565b6000613599613346565b90506135a5828261355e565b919050565b600067ffffffffffffffff8211156135c5576135c461352f565b5b6135ce8261345b565b9050602081019050919050565b82818337600083830152505050565b60006135fd6135f8846135aa565b61358f565b9050828152602081018484840111156136195761361861352a565b5b6136248482856135db565b509392505050565b600082601f83011261364157613640613525565b5b81356136518482602086016135ea565b91505092915050565b6000819050919050565b61366d8161365a565b811461367857600080fd5b50565b60008135905061368a81613664565b92915050565b600080600080600060a086880312156136ac576136ab613350565b5b60006136ba88828901613510565b955050602086013567ffffffffffffffff8111156136db576136da613355565b5b6136e78882890161362c565b945050604086013567ffffffffffffffff81111561370857613707613355565b5b6137148882890161362c565b93505060606137258882890161367b565b92505060806137368882890161367b565b9150509295509295909350565b61374c8161365a565b82525050565b60006020820190506137676000830184613743565b92915050565b60006020828403121561378357613782613350565b5b60006137918482850161367b565b91505092915050565b6137a3816134e7565b82525050565b60006020820190506137be600083018461379a565b92915050565b600080604083850312156137db576137da613350565b5b60006137e985828601613510565b92505060206137fa8582860161367b565b9150509250929050565b600081519050919050565b600082825260208201905092915050565b6000819050602082019050919050565b613839816134e7565b82525050565b600061384b8383613830565b60208301905092915050565b6000602082019050919050565b600061386f82613804565b613879818561380f565b935061388483613820565b8060005b838110156138b557815161389c888261383f565b97506138a783613857565b925050600181019050613888565b5085935050505092915050565b600081519050919050565b600082825260208201905092915050565b6000819050602082019050919050565b6138f78161365a565b82525050565b600061390983836138ee565b60208301905092915050565b6000602082019050919050565b600061392d826138c2565b61393781856138cd565b9350613942836138de565b8060005b8381101561397357815161395a88826138fd565b975061396583613915565b925050600181019050613946565b5085935050505092915050565b6000604082019050818103600083015261399a8185613864565b905081810360208301526139ae8184613922565b90509392505050565b600060c0820190506139cc600083018961379a565b81810360208301526139de818861346c565b905081810360408301526139f2818761346c565b9050613a016060830186613743565b613a0e6080830185613743565b613a1b60a0830184613743565b979650505050505050565b600080600060608486031215613a3f57613a3e613350565b5b6000613a4d86828701613510565b9350506020613a5e86828701613510565b9250506040613a6f8682870161367b565b9150509250925092565b600081519050919050565b600082825260208201905092915050565b6000819050602082019050919050565b6000613ab0826134c7565b9050919050565b613ac081613aa5565b82525050565b613acf816133df565b82525050565b60a082016000820151613aeb60008501826138ee565b506020820151613afe6020850182613ab7565b506040820151613b116040850182613ab7565b506060820151613b2460608501826138ee565b506080820151613b376080850182613ac6565b50505050565b6000613b498383613ad5565b60a08301905092915050565b6000602082019050919050565b6000613b6d82613a79565b613b778185613a84565b9350613b8283613a95565b8060005b83811015613bb3578151613b9a8882613b3d565b9750613ba583613b55565b925050600181019050613b86565b5085935050505092915050565b60006020820190508181036000830152613bda8184613b62565b905092915050565b600060208284031215613bf857613bf7613350565b5b6000613c0684828501613510565b91505092915050565b60008060408385031215613c2657613c25613350565b5b600083013567ffffffffffffffff811115613c4457613c43613355565b5b613c508582860161362c565b9250506020613c618582860161367b565b9150509250929050565b613c74816133df565b8114613c7f57600080fd5b50565b600081359050613c9181613c6b565b92915050565b60008060408385031215613cae57613cad613350565b5b6000613cbc85828601613510565b9250506020613ccd85828601613c82565b9150509250929050565b600081519050919050565b600082825260208201905092915050565b6000819050602082019050919050565b600082825260208201905092915050565b6000613d1f82613415565b613d298185613d03565b9350613d39818560208601613431565b613d428161345b565b840191505092915050565b600082825260208201905092915050565b6000613d6982613804565b613d738185613d4d565b9350613d7e83613820565b8060005b83811015613daf578151613d96888261383f565b9750613da183613857565b925050600181019050613d82565b5085935050505092915050565b600082825260208201905092915050565b6000613dd8826138c2565b613de28185613dbc565b9350613ded836138de565b8060005b83811015613e1e578151613e0588826138fd565b9750613e1083613915565b925050600181019050613df1565b5085935050505092915050565b600061010083016000830151613e446000860182613830565b5060208301518482036020860152613e5c8282613d14565b91505060408301518482036040860152613e768282613d14565b9150506060830151613e8b60608601826138ee565b506080830151613e9e60808601826138ee565b5060a0830151613eb160a08601826138ee565b5060c083015184820360c0860152613ec98282613d5e565b91505060e083015184820360e0860152613ee38282613dcd565b9150508091505092915050565b6000613efc8383613e2b565b905092915050565b6000602082019050919050565b6000613f1c82613cd7565b613f268185613ce2565b935083602082028501613f3885613cf3565b8060005b85811015613f745784840389528151613f558582613ef0565b9450613f6083613f04565b925060208a01995050600181019050613f3c565b50829750879550505050505092915050565b60006020820190508181036000830152613fa08184613f11565b905092915050565b600067ffffffffffffffff821115613fc357613fc261352f565b5b613fcc8261345b565b9050602081019050919050565b6000613fec613fe784613fa8565b61358f565b9050828152602081018484840111156140085761400761352a565b5b6140138482856135db565b509392505050565b600082601f8301126140305761402f613525565b5b8135614040848260208601613fd9565b91505092915050565b6000806000806080858703121561406357614062613350565b5b600061407187828801613510565b945050602061408287828801613510565b93505060406140938782880161367b565b925050606085013567ffffffffffffffff8111156140b4576140b3613355565b5b6140c08782880161401b565b91505092959194509250565b600080604083850312156140e3576140e2613350565b5b60006140f18582860161367b565b92505060206141028582860161367b565b9150509250929050565b6000806040838503121561412357614122613350565b5b600061413185828601613510565b925050602061414285828601613510565b9150509250929050565b7f4e487b7100000000000000000000000000000000000000000000000000000000600052602260045260246000fd5b6000600282049050600182168061419357607f821691505b6020821081036141a6576141a561414c565b5b50919050565b7f54686520646561646c696e652073686f756c642062652061206461746520696e60008201527f20746865206675747572652e0000000000000000000000000000000000000000602082015250565b6000614208602c83613420565b9150614213826141ac565b604082019050919050565b60006020820190508181036000830152614237816141fb565b9050919050565b60008190508160005260206000209050919050565b60006020601f8301049050919050565b600082821b905092915050565b6000600883026142a07fffffffffffffffffffffffffffffffffffffffffffffffffffffffffffffffff82614263565b6142aa8683614263565b95508019841693508086168417925050509392505050565b6000819050919050565b60006142e76142e26142dd8461365a565b6142c2565b61365a565b9050919050565b6000819050919050565b614301836142cc565b61431561430d826142ee565b848454614270565b825550505050565b600090565b61432a61431d565b6143358184846142f8565b505050565b5b818110156143595761434e600082614322565b60018101905061433b565b5050565b601f82111561439e5761436f8161423e565b61437884614253565b81016020851015614387578190505b61439b61439385614253565b83018261433a565b50505b505050565b600082821c905092915050565b60006143c1600019846008026143a3565b1980831691505092915050565b60006143da83836143b0565b9150826002028217905092915050565b6143f382613415565b67ffffffffffffffff81111561440c5761440b61352f565b5b614416825461417b565b61442182828561435d565b600060209050601f8311600181146144545760008415614442578287015190505b61444c85826143ce565b8655506144b4565b601f1984166144628661423e565b60005b8281101561448a57848901518255600182019150602085019450602081019050614465565b868310156144a757848901516144a3601f8916826143b0565b8355505b6001600288020188555050505b505050505050565b7f4e487b7100000000000000000000000000000000000000000000000000000000600052601160045260246000fd5b60006144f68261365a565b91507fffffffffffffffffffffffffffffffffffffffffffffffffffffffffffffffff8203614528576145276144bc565b5b600182019050919050565b600061453e8261365a565b91506145498361365a565b9250828203905081811115614561576145606144bc565b5b92915050565b7f4552433732313a20617070726f76616c20746f2063757272656e74206f776e6560008201527f7200000000000000000000000000000000000000000000000000000000000000602082015250565b60006145c3602183613420565b91506145ce82614567565b604082019050919050565b600060208201905081810360008301526145f2816145b6565b9050919050565b7f4552433732313a20617070726f76652063616c6c6572206973206e6f7420746f60008201527f6b656e206f776e6572206e6f7220617070726f76656420666f7220616c6c0000602082015250565b6000614655603e83613420565b9150614660826145f9565b604082019050919050565b6000602082019050818103600083015261468481614648565b9050919050565b7f4552433732313a2063616c6c6572206973206e6f7420746f6b656e206f776e6560008201527f72206e6f7220617070726f766564000000000000000000000000000000000000602082015250565b60006146e7602e83613420565b91506146f28261468b565b604082019050919050565b60006020820190508181036000830152614716816146da565b9050919050565b600081905092915050565b50565b600061473860008361471d565b915061474382614728565b600082019050919050565b60006147598261472b565b9150819050919050565b600061476e8261365a565b91506147798361365a565b9250828201905080821115614791576147906144bc565b5b92915050565b7f4e487b7100000000000000000000000000000000000000000000000000000000600052603260045260246000fd5b7f4552433732313a20696e76616c696420746f6b656e2049440000000000000000600082015250565b60006147fc601883613420565b9150614807826147c6565b602082019050919050565b6000602082019050818103600083015261482b816147ef565b9050919050565b7f4552433732313a2061646472657373207a65726f206973206e6f74206120766160008201527f6c6964206f776e65720000000000000000000000000000000000000000000000602082015250565b600061488e602983613420565b915061489982614832565b604082019050919050565b600060208201905081810360008301526148bd81614881565b9050919050565b7f4f6e6c79206d61726b6574706c616365206f776e65722063616e20757064617460008201527f65206c697374696e672070726963652e00000000000000000000000000000000602082015250565b6000614920603083613420565b915061492b826148c4565b604082019050919050565b6000602082019050818103600083015261494f81614913565b9050919050565b7f506c65617365207375626d6974207468652061736b696e67207072696365206960008201527f6e206f7264657220746f20636f6d706c65746520746865207075726368617365602082015250565b60006149b2604083613420565b91506149bd82614956565b604082019050919050565b600060208201905081810360008301526149e1816149a5565b9050919050565b600081905092915050565b60006149fe82613415565b614a0881856149e8565b9350614a18818560208601613431565b80840191505092915050565b6000614a3082856149f3565b9150614a3c82846149f3565b91508190509392505050565b7f4f6e6c79206974656d206f776e65722063616e20706572666f726d207468697360008201527f206f7065726174696f6e00000000000000000000000000000000000000000000602082015250565b6000614aa4602a83613420565b9150614aaf82614a48565b604082019050919050565b60006020820190508181036000830152614ad381614a97565b9050919050565b7f5072696365206d75737420626520657175616c20746f206c697374696e67207060008201527f7269636500000000000000000000000000000000000000000000000000000000602082015250565b6000614b36602483613420565b9150614b4182614ada565b604082019050919050565b60006020820190508181036000830152614b6581614b29565b9050919050565b7f4552433732313a207472616e736665722066726f6d20696e636f72726563742060008201527f6f776e6572000000000000000000000000000000000000000000000000000000602082015250565b6000614bc8602583613420565b9150614bd382614b6c565b604082019050919050565b60006020820190508181036000830152614bf781614bbb565b9050919050565b7f4552433732313a207472616e7366657220746f20746865207a65726f2061646460008201527f7265737300000000000000000000000000000000000000000000000000000000602082015250565b6000614c5a602483613420565b9150614c6582614bfe565b604082019050919050565b60006020820190508181036000830152614c8981614c4d565b9050919050565b7f4552433732313a206d696e7420746f20746865207a65726f2061646472657373600082015250565b6000614cc6602083613420565b9150614cd182614c90565b602082019050919050565b60006020820190508181036000830152614cf581614cb9565b9050919050565b7f4552433732313a20746f6b656e20616c7265616479206d696e74656400000000600082015250565b6000614d32601c83613420565b9150614d3d82614cfc565b602082019050919050565b60006020820190508181036000830152614d6181614d25565b9050919050565b7f45524337323155524953746f726167653a2055524920736574206f66206e6f6e60008201527f6578697374656e7420746f6b656e000000000000000000000000000000000000602082015250565b6000614dc4602e83613420565b9150614dcf82614d68565b604082019050919050565b60006020820190508181036000830152614df381614db7565b9050919050565b7f5072696365206d757374206265206174206c6561737420312077656900000000600082015250565b6000614e30601c83613420565b9150614e3b82614dfa565b602082019050919050565b60006020820190508181036000830152614e5f81614e23565b9050919050565b6000608082019050614e7b600083018761379a565b614e88602083018661379a565b614e956040830185613743565b614ea260608301846133eb565b95945050505050565b7f4552433732313a20617070726f766520746f2063616c6c657200000000000000600082015250565b6000614ee1601983613420565b9150614eec82614eab565b602082019050919050565b60006020820190508181036000830152614f1081614ed4565b9050919050565b7f4552433732313a207472616e7366657220746f206e6f6e20455243373231526560008201527f63656976657220696d706c656d656e7465720000000000000000000000000000602082015250565b6000614f73603283613420565b9150614f7e82614f17565b604082019050919050565b60006020820190508181036000830152614fa281614f66565b9050919050565b7f436f756e7465723a2064656372656d656e74206f766572666c6f770000000000600082015250565b6000614fdf601b83613420565b9150614fea82614fa9565b602082019050919050565b6000602082019050818103600083015261500e81614fd2565b9050919050565b600081519050919050565b600082825260208201905092915050565b600061503c82615015565b6150468185615020565b9350615056818560208601613431565b61505f8161345b565b840191505092915050565b600060808201905061507f600083018761379a565b61508c602083018661379a565b6150996040830185613743565b81810360608301526150ab8184615031565b905095945050505050565b6000815190506150c581613386565b92915050565b6000602082840312156150e1576150e0613350565b5b60006150ef848285016150b6565b91505092915050565b7f4e487b7100000000000000000000000000000000000000000000000000000000600052601260045260246000fd5b60006151328261365a565b915061513d8361365a565b92508261514d5761514c6150f8565b5b828204905092915050565b60006151638261365a565b915061516e8361365a565b92508261517e5761517d6150f8565b5b82820690509291505056fea26469706673582212205f3fae3bd3ec0a6972a39f6e3778df060db2458b998249cd57ae0e471ce57ea664736f6c63430008110033",
  "linkReferences": {},
  "deployedLinkReferences": {}
}